:100000000C9434000C9451000C9451000C94510049
:100010000C94AD000C9451000C9451000C945100C0
:100020000C9451000C9451000C9451000C94080253
:100030000C9451000C9451000C9451000C945100FC
:100040000C9451000C9451000C9451000C945100EC
:100050000C9451000C9451000C9451000C945100DC
:100060000C9451000C94510011241FBECFEFD8E026
:10007000DEBFCDBF11E0A0E0B1E0E0E1F3E102C0FE
:1000800005900D92A436B107D9F721E0A4E6B1E0BE
:1000900001C01D92A837B207E1F70E942B040C940F
:1000A00086090C940000CF93DF93EC01CC0FDD1F89
:1000B0009E0150E040E060E074E284EF90E00E9436
:1000C0004606309389002093880080E197E2BE01C4
:1000D0000E941E0688E99AE30E941E06CB01B0E04A
:1000E000A0E08093680190936901A0936A01B093A6
:1000F0006B01E1E8F0E080818160808381E08093A2
:100100006D01DF91CF91089582E19AE79093890084
:100110008093880081E090E0A0E0B0E080936401EB
:1001200090936501A0936601B0936701E1E8F0E068
:1001300080818560808381E080936C0108950596BD
:100140006AE070E00E9432066150710908F4089577
:1001500085E38A95F1F70000F7CF1F920F920FB653
:100160000F9211242F933F934F935F936F937F933D
:100170008F939F93AF93BF93EF93FF9386B1809339
:1001800072018091720186958170809376018091D1
:10019000720182FB882780F980937101809173013D
:1001A00081113EC0809176018130D9F480910301A4
:1001B00081110BC0809174018A3528F480917401FB
:1001C0008F5F8093740181E08BC090917701809163
:1001D00074019817C0F7809177018F5F8093770142
:1001E000F2CF809171018130A9F5809103018111D5
:1001F0000DC09091740180917701891728F4809146
:10020000740181508093740182E06AC0809177010B
:100210008333D0F380917701815080937701F4CFBD
:1002200080917301813009F06AC08091760181115B
:1002300045C080910301811137C090917401809174
:100240007701891728F4809174018150809374019B
:10025000109275019091750180917301981799F032
:1002600081E0809304018091750180937301609116
:10027000770184E690E00E943D096091740185E673
:1002800090E00E943D09FF91EF91BF91AF919F9146
:100290008F917F916F915F914F913F912F910F902F
:1002A0000FBE0F901F90189580917701833380F2D5
:1002B00080917701815080937701CACF809171013D
:1002C000813041F68091030181110DC0809174014C
:1002D0008A3528F4809174018F5F8093740183E0E4
:1002E00080937501B7CF9091770180917401981731
:1002F000B0F7809177018F5F80937701F0CF809185
:1003000073018230B1F5809176018130B1F4809132
:10031000030181110AC090917401809177018917BE
:10032000F0F6809174018150D8CF809177018333AA
:10033000B0F2809177018150DFCF809171018111FE
:1003400089CF80910301811109C0809174018A35A0
:1003500008F07ECF809174018F5F78CF9091770104
:1003600080917401981708F073CF809177018F5FA7
:10037000A2CF80917601811118C080910301811173
:1003800009C0809174018A3508F03ECF80917401D4
:100390008F5F38CF9091770180917401981708F0A2
:1003A00033CF809177018F5F38CF809171018111B8
:1003B00051CF8091030181110BC090917401809104
:1003C0007701891708F0FFCE809174018150F9CE32
:1003D00080917701833308F4F6CE809177018150C4
:1003E000FDCEE1E8F0E080818860808382E0809348
:1003F0006F000895E0EBF0E080818360808380816E
:1004000080688083E1EBF0E08081876080830895DD
:100410001F920F920FB60F9211244F935F936F9319
:100420007F938F939F93AF93BF9380916D018130A2
:10043000A1F48091680190916901A0916A01B09145
:100440006B01892B8A2B8B2BC1F5809181008E7FCC
:10045000809381002D9810926D0180916C01813004
:10046000F9F49091020191111BC0409164015091E7
:1004700065016091660170916701452B462B472B02
:1004800009F03FC080930201809181008E7F8093AC
:100490008100809181008B7F8093810010926C019C
:1004A000BF91AF919F918F917F916F915F914F918C
:1004B0000F900FBE0F901F9018958091680190913A
:1004C0006901A0916A01B0916B01892B8A2B8B2B5A
:1004D00021F285B190E2892785B9809168019091D8
:1004E0006901A0916A01B0916B010197A109B1095D
:1004F0008093680190936901A0936A01B0936B01A6
:10050000ACCF8091640190916501A0916601B0919A
:100510006701892B8A2B8B2B19F2809164019091B2
:100520006501A0916601B09167010197A109B10928
:100530008093640190936501A0936601B093670175
:10054000AFCF9BB19F709BB99BB1807F892B8BB93B
:10055000299A299A29980895CF93C82F28980E94FC
:10056000A1028C2F8295807F0E94A1028FE39FE1E0
:100570000197F1F700C00000CF910895811104C0E8
:1005800080E8860F0C94AC0280ECFBCF84B18360D2
:1005900084B98AB1806F8AB98FE59AEE0197F1F735
:1005A00000C0000080E30E94A1028FE19EE4019759
:1005B000F1F700C0000080E30E94A1028FED91E0FE
:1005C0000197F1F700C0000080E30E94A10280E2E1
:1005D0000E94A1028FE39FE10197F1F700C00000A4
:1005E00088E20E94AC028FE00C94AC02CF93C82F3B
:1005F000289A0E94A1028C2F8295807F0E94A102DE
:100600008FE39FE10197F1F700C00000CF910895BB
:10061000CF93DF93EC018991811103C0DF91CF91DA
:1006200008950E94F602F7CF249A8FE599E001978A
:10063000F1F700C0000024988BE091E00197F1F7FA
:1006400000C000001C990AC01C9BFECF87EC90E004
:100650000197F1F700C0000081E0089580E008955F
:10066000249A2C988AE08A95F1F700C024988FEE9E
:1006700090E00197F1F700C000000895249A2C98AB
:100680008FEE90E00197F1F700C0000024989AE007
:100690009A95F1F700C00895CF93DF93D82FC8E063
:1006A000D0FF08C00E943003D695C150C9F7DF9132
:1006B000CF9108950E943E03F7CF0E941403882330
:1006C00031F08CEC0E944C0384E40C944C030895AC
:1006D000249A2C988AE08A95F1F700C02498E5E3E3
:1006E000EA95F1F7000083B1E7ECF0E03197F1F71C
:1006F00000C000008295817008951F93CF93DF930F
:10070000D8E011E0C0E00E9468038111C12B110FF5
:10071000D150C9F78C2FDF91CF911F910895EF929F
:10072000FF920F931F93CF93DF93CDB7DEB7299737
:100730000FB6F894DEBF0FBECDBF24982C982FEFD4
:1007400081EE94E0215080409040E1F700C000002D
:100750001C990EC080E029960FB6F894DEBF0FBE3C
:10076000CDBFDF91CF911F910F91FF90EF90089532
:100770000E941403882371F38CEC0E944C038EEBCF
:100780000E944C038E010F5F1F4F7E01EAE0EE0EC8
:10079000F11C0E947D03F80181938F01EE15FF0586
:1007A000C1F70E9414038823A9F28CEC0E944C0329
:1007B0008EE40E944C038B810E944C038C810E942A
:1007C0004C038FE70E944C038FE891E00197F1F70B
:1007D00000C000000E941403882309F4BBCF8CECF6
:1007E0000E944C0388E40E944C039FEFE9EFF0E085
:1007F0009150E040F040E1F700C0000081E0ABCF55
:10080000CF93DF93EC010E946803882301F10E94DB
:1008100014038823D1F08CEC0E944C038EEB0E94D1
:100820004C030E947D0388830E947D0389830E947C
:100830007D030E947D030E947D030E947D030E9430
:100840007D030E947D030E947D0381E001C080E062
:10085000DF91CF910895CF93DF93CDB7DEB768973F
:100860000FB6F894DEBF0FBECDBF88B1866088B9E1
:10087000249A87B1886387B98AB1837F8AB98BB19B
:100880008C608BB9259A239A0E94C6020E94F101BE
:100890000E94FA0181E00E94AC0262E080E00E94C6
:1008A000BE0285E191E00E94080361E081E00E94C0
:1008B000BE0282E291E00E9408032FEF43ED80E345
:1008C000215040408040E1F700C0000081E00E94DC
:1008D000AC028091680082608093680080916C0017
:1008E000866080936C0080916C00806280936C00C5
:1008F000789486B1809372018091720182708093A6
:1009000076018091720184708093710180917101F0
:10091000811114C180917601811110C1109273016F
:1009200080917301809375010E948F030E945D0383
:1009300084E690E00E9435098093770180917701E9
:100940008F3F41F080917701823338F480917701B5
:100950008B3518F08CE38093770185E690E00E9458
:10096000350980937401809174018F3F41F080912B
:100970007401823338F4809174018B3518F086E469
:10098000809374019AE0E92EF12C20E5222E312C7F
:1009900031E3632E31E0732E8E010F5F1F4F4AE06B
:1009A000542E59E1A52EB12C44244394CE014796F0
:1009B0000E9400048823B9F18F89988D29E0289F2F
:1009C0006001299FD00C112446EFD41A460183E020
:1009D000969487948A95E1F79092010180920001A4
:1009E00060E080E00E94BE02C401B7010E941E06C2
:1009F0009F938F93C601B1010E941E067F936F9350
:100A00007F926F921F9284E18F931F930F930E94A6
:100A10008706C8010E9408030E945D030FB6F89480
:100A2000DEBF0FBECDBF80910201813009F09EC0B4
:100A3000209100013091010146EF4203C001439F24
:100A4000900D1124805F984DB5010E941E06CB01C8
:100A500088589F4FB7010E941E066093B300809193
:100A600074012091000130910101859DC001112484
:100A70008217930708F09CC088B1886188B94598AF
:100A8000809174012091000130910101859DC00188
:100A900011244E968217930770F080917701209170
:100AA000000130910101859DC00111244E97281746
:100AB000390708F093C080916E01813009F48EC02F
:100AC00040926E0186E091E00E94530099B189B195
:100AD00092FDA6C0109203014092040110920201FF
:100AE0000E94840080910401882309F45FCF109252
:100AF000040160E081E00E94BE02809103019091B8
:100B00007401882309F491C0809177011F929F930B
:100B10001F928F938DE391E09F938F931F9286E1B5
:100B20008F931F930F930E9487060FB6F894DEBF32
:100B30000FBECDBFC8010E94080336CF809171015E
:100B4000811108C080917601882321F081E0809393
:100B50007301E6CE80917101882331F08091760196
:100B6000811102C082E0F3CF83E0F1CF80910201D6
:100B7000811175CF80910301811117C020917401FB
:100B800046EF42039001112428513C4F529EC00170
:100B9000539E900D1124B5010E943206CB01885856
:100BA0009F4FB7010E94320658CF20917701E8CFBE
:100BB000809177012091000130910101859DC00154
:100BC00011242817390728F488B1806388B943981D
:100BD00057CF88B1886288B9449852CF8091740108
:100BE0002091000130910101859DC0011124281739
:100BF000390708F06BCF8091770120910001309187
:100C00000101859DC00111248217930708F05ECF72
:100C100080916E01813009F059CF10926E0156CF4C
:100C200083FD60CF4092030157CF809177011F92DF
:100C30009F931F928F9380E591E06ECFAA1BBB1B01
:100C400051E107C0AA1FBB1FA617B70710F0A61BCC
:100C5000B70B881F991F5A95A9F780959095BC01ED
:100C6000CD01089597FB072E16F4009407D077FD69
:100C700009D00E941E0607FC05D03EF49095819590
:100C80009F4F0895709561957F4F0895052E97FBAE
:100C90001EF400940E945D0657FD07D00E94650671
:100CA00007FC03D04EF40C945D06509540953095AA
:100CB00021953F4F4F4F5F4F0895909580957095C8
:100CC00061957F4F8F4F9F4F0895A1E21A2EAA1B67
:100CD000BB1BFD010DC0AA1FBB1FEE1FFF1FA217EC
:100CE000B307E407F50720F0A21BB30BE40BF50BE9
:100CF000661F771F881F991F1A9469F76095709572
:100D0000809590959B01AC01BD01CF010895AEE0A7
:100D1000B0E0EDE8F6E00C945D090D891E898F893D
:100D2000988D26E02C831A83098397FF02C080E008
:100D300090E801979E838D83AE01455E5F4F698D7C
:100D40007A8DCE0101960E94B7064D815E8157FDD6
:100D50000AC02F813885421753070CF49A01020FFD
:100D6000131FF80110822E96E4E00C947909ABE091
:100D7000B0E0EDEBF6E00C944F097C013B018A01F9
:100D8000FC0117821682838181FFC8C1CE010196C2
:100D90005C01F7019381F30193FD859193FF8191AC
:100DA0003F01882309F453C1853239F493FD8591BD
:100DB00093FF81913F01853229F4B70190E00E94B1
:100DC000A708E7CF912C212C312CFFE1F31538F047
:100DD0008B3211F190F4803209F1833229F137FC22
:100DE0003CC020ED280F2A3050F536FE20C08AE0A6
:100DF000989E200D1124922E06C08D3291F08033E2
:100E000071F7689430F8F30193FD859193FF819118
:100E10003F018111DACF21C0689431F8689432F82B
:100E2000F2CF689433F8EFCF689434F8ECCFEAE06F
:100E30002E9E200D1124222E689435F8E4CF8E3298
:100E400029F436FC04C1689436F8DDCF8C3619F4E9
:100E5000689437F8D8CF8836B1F2982F9F7D955493
:100E60009330E0F08336A1F18337C1F1833509F087
:100E700063C02801F2E04F0E511CF801C080D18000
:100E8000692D70E036FC02C06FEF7FEFC6010E9453
:100E900091084C01689437F882010AC00C5F1F4F1B
:100EA000FFE3F98388248394912C6501E89437F853
:100EB00033FE2DC0522C8114910471F5552009F494
:100EC00068CFB70180E290E00E94A7085A94F6CF5D
:100ED000F801808189830E5F1F4FE4CF2801F2E083
:100EE0004F0E511CF801C080D180692D70E036FC96
:100EF00002C06FEF7FEFC6010E949C084C01820187
:100F0000D5CFB70180E290E00E94A7082A94281468
:100F1000190409F0B0F7CECFF60137FC859137FE02
:100F200081916F01B70190E00E94A70851105A9477
:100F3000F1E08F1A9108BFCF843619F0893609F095
:100F400077C0F80137FE6BC0608171818281938127
:100F50000C5F1F4FF32DFF763F2E97FF09C0909532
:100F60008095709561957F4F8F4F9F4F689437F8AC
:100F70002AE030E0A5010E94D708C82ECA188C2CA0
:100F8000432C36FE0CC0E89440F8C91440F434FEFB
:100F900005C032FC03C0F32DFE7E4F2E892C44FE8B
:100FA00095C0FE01EC0DF11D8081803309F087C0F2
:100FB000242D297E422E842D8870582E43FC95C006
:100FC00040FE8FC09C2C821418F42C0C922C981884
:100FD00044FE91C0B70180E390E00E94A70842FE62
:100FE00009C088E790E041FE02C088E590E0B701C3
:100FF0000E94A708C91408F48AC0CA94D12C9FEF94
:10100000C91AD90ACA0CDB1CF60182916F01B7011B
:1010100090E00E94A708AC14BD04B1F74FCF6081E7
:101020007181072E000C880B990B0E5F1F4F92CF1A
:10103000D32CE894D4F82AE030E0853739F1232D19
:10104000297FD22E8F3601F148F48835A9F0F701B7
:10105000868197812B96E2E10C946B09803749F0E9
:101060008837A9F7D4FE02C06894D2F820E130E0B6
:101070000DC06894D4F8F6CF34FE03C0822F86608A
:10108000D82E20E132E002C028E030E0F801D7FE9F
:101090000FC060817181828193810C5F1F4FA50118
:1010A0000E94D708C82ECA183D2CE89437F867CF9D
:1010B0006081718190E080E00E5F1F4FF0CF42FCB5
:1010C00002C0839478CF8394839475CF842D8678DF
:1010D00009F471CFF6CFB70180E290E00E94A70833
:1010E00083948214C0F3512C73CF522C581882145D
:1010F00008F46ECFF8CF842D867809F47BCF8BE28D
:1011000041FE80E247FC8DE2B70190E071CFB7016C
:1011100080E390E00E94A7089A946CCF8FEF9FEF36
:1011200099CFFC010590615070400110D8F780956F
:1011300090958E0F9F1F0895FC01615070400190A3
:101140000110D8F7809590958E0F9F1F08950F93EB
:101150001F93CF93DF93182F092FEB018B8181FD14
:1011600009C01FEF0FEF812F902FDF91CF911F91BB
:101170000F91089582FF14C02E813F818C819D8143
:10118000281739073CF4E881F981CF01019699834A
:10119000888310838E819F8101969F838E83E3CF06
:1011A000E885F985812F0995892BA1F3DACFFA011A
:1011B000AA27283051F1203181F1E8946F936E7F96
:1011C0006E5F7F4F8F4F9F4FAF4FB1E03ED0B4E087
:1011D0003CD0670F781F891F9A1FA11D680F791FC8
:1011E0008A1F911DA11D6A0F711D811D911DA11DD9
:1011F00020D009F468943F912AE0269F11243019E9
:10120000305D3193DEF6CF010895462F4770405D83
:101210004193B3E00FD0C9F7F6CF462F4F70405D32
:101220004A3318F0495D31FD4052419302D0A9F78D
:10123000EACFB4E0A6959795879577956795BA9587
:10124000C9F700976105710508959B01AC010A2E4D
:1012500006945795479537952795BA95C9F7620F24
:10126000731F841F951FA01D0895F999FECF92BD8D
:1012700081BDF89A992780B50895262FF999FECF58
:1012800092BD81BDF89A019700B4021639F01FBAD9
:1012900020BD0FB6F894FA9AF99A0FBE08952F92CE
:1012A0003F924F925F926F927F928F929F92AF92F6
:1012B000BF92CF92DF92EF92FF920F931F93CF9343
:1012C000DF93CDB7DEB7CA1BDB0B0FB6F894DEBFDA
:1012D0000FBECDBF09942A88398848885F846E8400
:1012E0007D848C849B84AA84B984C884DF80EE804A
:1012F000FD800C811B81AA81B981CE0FD11D0FB653
:10130000F894DEBF0FBECDBFED010895F894FFCF76
:101310004600010101060126014A015D018801B86C
:1013200001EE010B025368616E6520596F6B6F749B
:1013300061004545203130392050726F6A65637411
:101340000054656D703A2025642E2564004C6F773B
:101350003F2025326420486967683D2025326400BB
:101360004C6F773D2025326420486967683F20250F
:0413700032640000E3
:00000001FF
